{
	"data": {
		"bytecode": {
			"linkReferences": {},
			"object": "608060405234801561001057600080fd5b50610b4f806100206000396000f3fe608060405234801561001057600080fd5b50600436106100575760003560e01c80631d9990ed1461005c5780632fb1ad10146100785780633fe3861e146100ac578063b9db15b4146100c8578063ed90c7b7146100fc575b600080fd5b610076600480360381019061007191906107f3565b610118565b005b610092600480360381019061008d91906107c6565b6101e9565b6040516100a39594939291906108e1565b60405180910390f35b6100c660048036038101906100c191906107f3565b6102b4565b005b6100e260048036038101906100dd91906107c6565b610393565b6040516100f39594939291906108e1565b60405180910390f35b610116600480360381019061011191906107c6565b6104b5565b005b836000808781526020019081526020016000206001019080519060200190610141929190610649565b50826000808781526020019081526020016000206002018190555081600080878152602001908152602001600020600301819055508060008087815260200190815260200160002060040160006101000a81548160ff0219169083151502179055507fe93d2192040c86b6a434772c45f732d97c9badcc8e050fb6b63819e2c18b4ed885858585856040516101da9594939291906108e1565b60405180910390a15050505050565b600060205280600052604060002060009150905080600001549080600101805461021290610a05565b80601f016020809104026020016040519081016040528092919081815260200182805461023e90610a05565b801561028b5780601f106102605761010080835404028352916020019161028b565b820191906000526020600020905b81548152906001019060200180831161026e57829003601f168201915b5050505050908060020154908060030154908060040160009054906101000a900460ff16905085565b6040518060a00160405280868152602001858152602001848152602001838152602001821515815250600080878152602001908152602001600020600082015181600001556020820151816001019080519060200190610315929190610649565b50604082015181600201556060820151816003015560808201518160040160006101000a81548160ff0219169083151502179055509050507f27507a8e6763b217c27013902fe091ef4bea115c1ba93c68f6dd94ee24649b5f85858585856040516103849594939291906108e1565b60405180910390a15050505050565b60006060600080600080600087815260200190815260200160002060000154600080888152602001908152602001600020600101600080898152602001908152602001600020600201546000808a8152602001908152602001600020600301546000808b815260200190815260200160002060040160009054906101000a900460ff1683805461042290610a05565b80601f016020809104026020016040519081016040528092919081815260200182805461044e90610a05565b801561049b5780601f106104705761010080835404028352916020019161049b565b820191906000526020600020905b81548152906001019060200180831161047e57829003601f168201915b505050505093509450945094509450945091939590929450565b600080600083815260200190815260200160002060010180546104d790610a05565b80601f016020809104026020016040519081016040528092919081815260200182805461050390610a05565b80156105505780601f1061052557610100808354040283529160200191610550565b820191906000526020600020905b81548152906001019060200180831161053357829003601f168201915b5050505050905060008060008481526020019081526020016000206002015490506000806000858152602001908152602001600020600301549050600080600086815260200190815260200160002060040160009054906101000a900460ff1690506000808681526020019081526020016000206000808201600090556001820160006105dd91906106cf565b600282016000905560038201600090556004820160006101000a81549060ff021916905550507f074f3d9e72c1b7b8ce2e9efc042840d3fe283dd4c2a6c90a9a96e5f81224ace8858585858560405161063a9594939291906108e1565b60405180910390a15050505050565b82805461065590610a05565b90600052602060002090601f01602090048101928261067757600085556106be565b82601f1061069057805160ff19168380011785556106be565b828001600101855582156106be579182015b828111156106bd5782518255916020019190600101906106a2565b5b5090506106cb919061070f565b5090565b5080546106db90610a05565b6000825580601f106106ed575061070c565b601f01602090049060005260206000209081019061070b919061070f565b5b50565b5b80821115610728576000816000905550600101610710565b5090565b600061073f61073a84610960565b61093b565b90508281526020810184848401111561075b5761075a610acb565b5b6107668482856109c3565b509392505050565b60008135905061077d81610aeb565b92915050565b600082601f83011261079857610797610ac6565b5b81356107a884826020860161072c565b91505092915050565b6000813590506107c081610b02565b92915050565b6000602082840312156107dc576107db610ad5565b5b60006107ea848285016107b1565b91505092915050565b600080600080600060a0868803121561080f5761080e610ad5565b5b600061081d888289016107b1565b955050602086013567ffffffffffffffff81111561083e5761083d610ad0565b5b61084a88828901610783565b945050604061085b888289016107b1565b935050606061086c888289016107b1565b925050608061087d8882890161076e565b9150509295509295909350565b610893816109ad565b82525050565b60006108a482610991565b6108ae818561099c565b93506108be8185602086016109d2565b6108c781610ada565b840191505092915050565b6108db816109b9565b82525050565b600060a0820190506108f660008301886108d2565b81810360208301526109088187610899565b905061091760408301866108d2565b61092460608301856108d2565b610931608083018461088a565b9695505050505050565b6000610945610956565b90506109518282610a37565b919050565b6000604051905090565b600067ffffffffffffffff82111561097b5761097a610a97565b5b61098482610ada565b9050602081019050919050565b600081519050919050565b600082825260208201905092915050565b60008115159050919050565b6000819050919050565b82818337600083830152505050565b60005b838110156109f05780820151818401526020810190506109d5565b838111156109ff576000848401525b50505050565b60006002820490506001821680610a1d57607f821691505b60208210811415610a3157610a30610a68565b5b50919050565b610a4082610ada565b810181811067ffffffffffffffff82111715610a5f57610a5e610a97565b5b80604052505050565b7f4e487b7100000000000000000000000000000000000000000000000000000000600052602260045260246000fd5b7f4e487b7100000000000000000000000000000000000000000000000000000000600052604160045260246000fd5b600080fd5b600080fd5b600080fd5b600080fd5b6000601f19601f8301169050919050565b610af4816109ad565b8114610aff57600080fd5b50565b610b0b816109b9565b8114610b1657600080fd5b5056fea264697066735822122029c7a2b949f226e7d91fa7245aaaa2d1f71d762d6478eaf1b6f109f26d13051164736f6c63430008060033",
			"opcodes": "PUSH1 0x80 PUSH1 0x40 MSTORE CALLVALUE DUP1 ISZERO PUSH2 0x10 JUMPI PUSH1 0x0 DUP1 REVERT JUMPDEST POP PUSH2 0xB4F DUP1 PUSH2 0x20 PUSH1 0x0 CODECOPY PUSH1 0x0 RETURN INVALID PUSH1 0x80 PUSH1 0x40 MSTORE CALLVALUE DUP1 ISZERO PUSH2 0x10 JUMPI PUSH1 0x0 DUP1 REVERT JUMPDEST POP PUSH1 0x4 CALLDATASIZE LT PUSH2 0x57 JUMPI PUSH1 0x0 CALLDATALOAD PUSH1 0xE0 SHR DUP1 PUSH4 0x1D9990ED EQ PUSH2 0x5C JUMPI DUP1 PUSH4 0x2FB1AD10 EQ PUSH2 0x78 JUMPI DUP1 PUSH4 0x3FE3861E EQ PUSH2 0xAC JUMPI DUP1 PUSH4 0xB9DB15B4 EQ PUSH2 0xC8 JUMPI DUP1 PUSH4 0xED90C7B7 EQ PUSH2 0xFC JUMPI JUMPDEST PUSH1 0x0 DUP1 REVERT JUMPDEST PUSH2 0x76 PUSH1 0x4 DUP1 CALLDATASIZE SUB DUP2 ADD SWAP1 PUSH2 0x71 SWAP2 SWAP1 PUSH2 0x7F3 JUMP JUMPDEST PUSH2 0x118 JUMP JUMPDEST STOP JUMPDEST PUSH2 0x92 PUSH1 0x4 DUP1 CALLDATASIZE SUB DUP2 ADD SWAP1 PUSH2 0x8D SWAP2 SWAP1 PUSH2 0x7C6 JUMP JUMPDEST PUSH2 0x1E9 JUMP JUMPDEST PUSH1 0x40 MLOAD PUSH2 0xA3 SWAP6 SWAP5 SWAP4 SWAP3 SWAP2 SWAP1 PUSH2 0x8E1 JUMP JUMPDEST PUSH1 0x40 MLOAD DUP1 SWAP2 SUB SWAP1 RETURN JUMPDEST PUSH2 0xC6 PUSH1 0x4 DUP1 CALLDATASIZE SUB DUP2 ADD SWAP1 PUSH2 0xC1 SWAP2 SWAP1 PUSH2 0x7F3 JUMP JUMPDEST PUSH2 0x2B4 JUMP JUMPDEST STOP JUMPDEST PUSH2 0xE2 PUSH1 0x4 DUP1 CALLDATASIZE SUB DUP2 ADD SWAP1 PUSH2 0xDD SWAP2 SWAP1 PUSH2 0x7C6 JUMP JUMPDEST PUSH2 0x393 JUMP JUMPDEST PUSH1 0x40 MLOAD PUSH2 0xF3 SWAP6 SWAP5 SWAP4 SWAP3 SWAP2 SWAP1 PUSH2 0x8E1 JUMP JUMPDEST PUSH1 0x40 MLOAD DUP1 SWAP2 SUB SWAP1 RETURN JUMPDEST PUSH2 0x116 PUSH1 0x4 DUP1 CALLDATASIZE SUB DUP2 ADD SWAP1 PUSH2 0x111 SWAP2 SWAP1 PUSH2 0x7C6 JUMP JUMPDEST PUSH2 0x4B5 JUMP JUMPDEST STOP JUMPDEST DUP4 PUSH1 0x0 DUP1 DUP8 DUP2 MSTORE PUSH1 0x20 ADD SWAP1 DUP2 MSTORE PUSH1 0x20 ADD PUSH1 0x0 KECCAK256 PUSH1 0x1 ADD SWAP1 DUP1 MLOAD SWAP1 PUSH1 0x20 ADD SWAP1 PUSH2 0x141 SWAP3 SWAP2 SWAP1 PUSH2 0x649 JUMP JUMPDEST POP DUP3 PUSH1 0x0 DUP1 DUP8 DUP2 MSTORE PUSH1 0x20 ADD SWAP1 DUP2 MSTORE PUSH1 0x20 ADD PUSH1 0x0 KECCAK256 PUSH1 0x2 ADD DUP2 SWAP1 SSTORE POP DUP2 PUSH1 0x0 DUP1 DUP8 DUP2 MSTORE PUSH1 0x20 ADD SWAP1 DUP2 MSTORE PUSH1 0x20 ADD PUSH1 0x0 KECCAK256 PUSH1 0x3 ADD DUP2 SWAP1 SSTORE POP DUP1 PUSH1 0x0 DUP1 DUP8 DUP2 MSTORE PUSH1 0x20 ADD SWAP1 DUP2 MSTORE PUSH1 0x20 ADD PUSH1 0x0 KECCAK256 PUSH1 0x4 ADD PUSH1 0x0 PUSH2 0x100 EXP DUP2 SLOAD DUP2 PUSH1 0xFF MUL NOT AND SWAP1 DUP4 ISZERO ISZERO MUL OR SWAP1 SSTORE POP PUSH32 0xE93D2192040C86B6A434772C45F732D97C9BADCC8E050FB6B63819E2C18B4ED8 DUP6 DUP6 DUP6 DUP6 DUP6 PUSH1 0x40 MLOAD PUSH2 0x1DA SWAP6 SWAP5 SWAP4 SWAP3 SWAP2 SWAP1 PUSH2 0x8E1 JUMP JUMPDEST PUSH1 0x40 MLOAD DUP1 SWAP2 SUB SWAP1 LOG1 POP POP POP POP POP JUMP JUMPDEST PUSH1 0x0 PUSH1 0x20 MSTORE DUP1 PUSH1 0x0 MSTORE PUSH1 0x40 PUSH1 0x0 KECCAK256 PUSH1 0x0 SWAP2 POP SWAP1 POP DUP1 PUSH1 0x0 ADD SLOAD SWAP1 DUP1 PUSH1 0x1 ADD DUP1 SLOAD PUSH2 0x212 SWAP1 PUSH2 0xA05 JUMP JUMPDEST DUP1 PUSH1 0x1F ADD PUSH1 0x20 DUP1 SWAP2 DIV MUL PUSH1 0x20 ADD PUSH1 0x40 MLOAD SWAP1 DUP2 ADD PUSH1 0x40 MSTORE DUP1 SWAP3 SWAP2 SWAP1 DUP2 DUP2 MSTORE PUSH1 0x20 ADD DUP3 DUP1 SLOAD PUSH2 0x23E SWAP1 PUSH2 0xA05 JUMP JUMPDEST DUP1 ISZERO PUSH2 0x28B JUMPI DUP1 PUSH1 0x1F LT PUSH2 0x260 JUMPI PUSH2 0x100 DUP1 DUP4 SLOAD DIV MUL DUP4 MSTORE SWAP2 PUSH1 0x20 ADD SWAP2 PUSH2 0x28B JUMP JUMPDEST DUP3 ADD SWAP2 SWAP1 PUSH1 0x0 MSTORE PUSH1 0x20 PUSH1 0x0 KECCAK256 SWAP1 JUMPDEST DUP2 SLOAD DUP2 MSTORE SWAP1 PUSH1 0x1 ADD SWAP1 PUSH1 0x20 ADD DUP1 DUP4 GT PUSH2 0x26E JUMPI DUP3 SWAP1 SUB PUSH1 0x1F AND DUP3 ADD SWAP2 JUMPDEST POP POP POP POP POP SWAP1 DUP1 PUSH1 0x2 ADD SLOAD SWAP1 DUP1 PUSH1 0x3 ADD SLOAD SWAP1 DUP1 PUSH1 0x4 ADD PUSH1 0x0 SWAP1 SLOAD SWAP1 PUSH2 0x100 EXP SWAP1 DIV PUSH1 0xFF AND SWAP1 POP DUP6 JUMP JUMPDEST PUSH1 0x40 MLOAD DUP1 PUSH1 0xA0 ADD PUSH1 0x40 MSTORE DUP1 DUP7 DUP2 MSTORE PUSH1 0x20 ADD DUP6 DUP2 MSTORE PUSH1 0x20 ADD DUP5 DUP2 MSTORE PUSH1 0x20 ADD DUP4 DUP2 MSTORE PUSH1 0x20 ADD DUP3 ISZERO ISZERO DUP2 MSTORE POP PUSH1 0x0 DUP1 DUP8 DUP2 MSTORE PUSH1 0x20 ADD SWAP1 DUP2 MSTORE PUSH1 0x20 ADD PUSH1 0x0 KECCAK256 PUSH1 0x0 DUP3 ADD MLOAD DUP2 PUSH1 0x0 ADD SSTORE PUSH1 0x20 DUP3 ADD MLOAD DUP2 PUSH1 0x1 ADD SWAP1 DUP1 MLOAD SWAP1 PUSH1 0x20 ADD SWAP1 PUSH2 0x315 SWAP3 SWAP2 SWAP1 PUSH2 0x649 JUMP JUMPDEST POP PUSH1 0x40 DUP3 ADD MLOAD DUP2 PUSH1 0x2 ADD SSTORE PUSH1 0x60 DUP3 ADD MLOAD DUP2 PUSH1 0x3 ADD SSTORE PUSH1 0x80 DUP3 ADD MLOAD DUP2 PUSH1 0x4 ADD PUSH1 0x0 PUSH2 0x100 EXP DUP2 SLOAD DUP2 PUSH1 0xFF MUL NOT AND SWAP1 DUP4 ISZERO ISZERO MUL OR SWAP1 SSTORE POP SWAP1 POP POP PUSH32 0x27507A8E6763B217C27013902FE091EF4BEA115C1BA93C68F6DD94EE24649B5F DUP6 DUP6 DUP6 DUP6 DUP6 PUSH1 0x40 MLOAD PUSH2 0x384 SWAP6 SWAP5 SWAP4 SWAP3 SWAP2 SWAP1 PUSH2 0x8E1 JUMP JUMPDEST PUSH1 0x40 MLOAD DUP1 SWAP2 SUB SWAP1 LOG1 POP POP POP POP POP JUMP JUMPDEST PUSH1 0x0 PUSH1 0x60 PUSH1 0x0 DUP1 PUSH1 0x0 DUP1 PUSH1 0x0 DUP8 DUP2 MSTORE PUSH1 0x20 ADD SWAP1 DUP2 MSTORE PUSH1 0x20 ADD PUSH1 0x0 KECCAK256 PUSH1 0x0 ADD SLOAD PUSH1 0x0 DUP1 DUP9 DUP2 MSTORE PUSH1 0x20 ADD SWAP1 DUP2 MSTORE PUSH1 0x20 ADD PUSH1 0x0 KECCAK256 PUSH1 0x1 ADD PUSH1 0x0 DUP1 DUP10 DUP2 MSTORE PUSH1 0x20 ADD SWAP1 DUP2 MSTORE PUSH1 0x20 ADD PUSH1 0x0 KECCAK256 PUSH1 0x2 ADD SLOAD PUSH1 0x0 DUP1 DUP11 DUP2 MSTORE PUSH1 0x20 ADD SWAP1 DUP2 MSTORE PUSH1 0x20 ADD PUSH1 0x0 KECCAK256 PUSH1 0x3 ADD SLOAD PUSH1 0x0 DUP1 DUP12 DUP2 MSTORE PUSH1 0x20 ADD SWAP1 DUP2 MSTORE PUSH1 0x20 ADD PUSH1 0x0 KECCAK256 PUSH1 0x4 ADD PUSH1 0x0 SWAP1 SLOAD SWAP1 PUSH2 0x100 EXP SWAP1 DIV PUSH1 0xFF AND DUP4 DUP1 SLOAD PUSH2 0x422 SWAP1 PUSH2 0xA05 JUMP JUMPDEST DUP1 PUSH1 0x1F ADD PUSH1 0x20 DUP1 SWAP2 DIV MUL PUSH1 0x20 ADD PUSH1 0x40 MLOAD SWAP1 DUP2 ADD PUSH1 0x40 MSTORE DUP1 SWAP3 SWAP2 SWAP1 DUP2 DUP2 MSTORE PUSH1 0x20 ADD DUP3 DUP1 SLOAD PUSH2 0x44E SWAP1 PUSH2 0xA05 JUMP JUMPDEST DUP1 ISZERO PUSH2 0x49B JUMPI DUP1 PUSH1 0x1F LT PUSH2 0x470 JUMPI PUSH2 0x100 DUP1 DUP4 SLOAD DIV MUL DUP4 MSTORE SWAP2 PUSH1 0x20 ADD SWAP2 PUSH2 0x49B JUMP JUMPDEST DUP3 ADD SWAP2 SWAP1 PUSH1 0x0 MSTORE PUSH1 0x20 PUSH1 0x0 KECCAK256 SWAP1 JUMPDEST DUP2 SLOAD DUP2 MSTORE SWAP1 PUSH1 0x1 ADD SWAP1 PUSH1 0x20 ADD DUP1 DUP4 GT PUSH2 0x47E JUMPI DUP3 SWAP1 SUB PUSH1 0x1F AND DUP3 ADD SWAP2 JUMPDEST POP POP POP POP POP SWAP4 POP SWAP5 POP SWAP5 POP SWAP5 POP SWAP5 POP SWAP5 POP SWAP2 SWAP4 SWAP6 SWAP1 SWAP3 SWAP5 POP JUMP JUMPDEST PUSH1 0x0 DUP1 PUSH1 0x0 DUP4 DUP2 MSTORE PUSH1 0x20 ADD SWAP1 DUP2 MSTORE PUSH1 0x20 ADD PUSH1 0x0 KECCAK256 PUSH1 0x1 ADD DUP1 SLOAD PUSH2 0x4D7 SWAP1 PUSH2 0xA05 JUMP JUMPDEST DUP1 PUSH1 0x1F ADD PUSH1 0x20 DUP1 SWAP2 DIV MUL PUSH1 0x20 ADD PUSH1 0x40 MLOAD SWAP1 DUP2 ADD PUSH1 0x40 MSTORE DUP1 SWAP3 SWAP2 SWAP1 DUP2 DUP2 MSTORE PUSH1 0x20 ADD DUP3 DUP1 SLOAD PUSH2 0x503 SWAP1 PUSH2 0xA05 JUMP JUMPDEST DUP1 ISZERO PUSH2 0x550 JUMPI DUP1 PUSH1 0x1F LT PUSH2 0x525 JUMPI PUSH2 0x100 DUP1 DUP4 SLOAD DIV MUL DUP4 MSTORE SWAP2 PUSH1 0x20 ADD SWAP2 PUSH2 0x550 JUMP JUMPDEST DUP3 ADD SWAP2 SWAP1 PUSH1 0x0 MSTORE PUSH1 0x20 PUSH1 0x0 KECCAK256 SWAP1 JUMPDEST DUP2 SLOAD DUP2 MSTORE SWAP1 PUSH1 0x1 ADD SWAP1 PUSH1 0x20 ADD DUP1 DUP4 GT PUSH2 0x533 JUMPI DUP3 SWAP1 SUB PUSH1 0x1F AND DUP3 ADD SWAP2 JUMPDEST POP POP POP POP POP SWAP1 POP PUSH1 0x0 DUP1 PUSH1 0x0 DUP5 DUP2 MSTORE PUSH1 0x20 ADD SWAP1 DUP2 MSTORE PUSH1 0x20 ADD PUSH1 0x0 KECCAK256 PUSH1 0x2 ADD SLOAD SWAP1 POP PUSH1 0x0 DUP1 PUSH1 0x0 DUP6 DUP2 MSTORE PUSH1 0x20 ADD SWAP1 DUP2 MSTORE PUSH1 0x20 ADD PUSH1 0x0 KECCAK256 PUSH1 0x3 ADD SLOAD SWAP1 POP PUSH1 0x0 DUP1 PUSH1 0x0 DUP7 DUP2 MSTORE PUSH1 0x20 ADD SWAP1 DUP2 MSTORE PUSH1 0x20 ADD PUSH1 0x0 KECCAK256 PUSH1 0x4 ADD PUSH1 0x0 SWAP1 SLOAD SWAP1 PUSH2 0x100 EXP SWAP1 DIV PUSH1 0xFF AND SWAP1 POP PUSH1 0x0 DUP1 DUP7 DUP2 MSTORE PUSH1 0x20 ADD SWAP1 DUP2 MSTORE PUSH1 0x20 ADD PUSH1 0x0 KECCAK256 PUSH1 0x0 DUP1 DUP3 ADD PUSH1 0x0 SWAP1 SSTORE PUSH1 0x1 DUP3 ADD PUSH1 0x0 PUSH2 0x5DD SWAP2 SWAP1 PUSH2 0x6CF JUMP JUMPDEST PUSH1 0x2 DUP3 ADD PUSH1 0x0 SWAP1 SSTORE PUSH1 0x3 DUP3 ADD PUSH1 0x0 SWAP1 SSTORE PUSH1 0x4 DUP3 ADD PUSH1 0x0 PUSH2 0x100 EXP DUP2 SLOAD SWAP1 PUSH1 0xFF MUL NOT AND SWAP1 SSTORE POP POP PUSH32 0x74F3D9E72C1B7B8CE2E9EFC042840D3FE283DD4C2A6C90A9A96E5F81224ACE8 DUP6 DUP6 DUP6 DUP6 DUP6 PUSH1 0x40 MLOAD PUSH2 0x63A SWAP6 SWAP5 SWAP4 SWAP3 SWAP2 SWAP1 PUSH2 0x8E1 JUMP JUMPDEST PUSH1 0x40 MLOAD DUP1 SWAP2 SUB SWAP1 LOG1 POP POP POP POP POP JUMP JUMPDEST DUP3 DUP1 SLOAD PUSH2 0x655 SWAP1 PUSH2 0xA05 JUMP JUMPDEST SWAP1 PUSH1 0x0 MSTORE PUSH1 0x20 PUSH1 0x0 KECCAK256 SWAP1 PUSH1 0x1F ADD PUSH1 0x20 SWAP1 DIV DUP2 ADD SWAP3 DUP3 PUSH2 0x677 JUMPI PUSH1 0x0 DUP6 SSTORE PUSH2 0x6BE JUMP JUMPDEST DUP3 PUSH1 0x1F LT PUSH2 0x690 JUMPI DUP1 MLOAD PUSH1 0xFF NOT AND DUP4 DUP1 ADD OR DUP6 SSTORE PUSH2 0x6BE JUMP JUMPDEST DUP3 DUP1 ADD PUSH1 0x1 ADD DUP6 SSTORE DUP3 ISZERO PUSH2 0x6BE JUMPI SWAP2 DUP3 ADD JUMPDEST DUP3 DUP2 GT ISZERO PUSH2 0x6BD JUMPI DUP3 MLOAD DUP3 SSTORE SWAP2 PUSH1 0x20 ADD SWAP2 SWAP1 PUSH1 0x1 ADD SWAP1 PUSH2 0x6A2 JUMP JUMPDEST JUMPDEST POP SWAP1 POP PUSH2 0x6CB SWAP2 SWAP1 PUSH2 0x70F JUMP JUMPDEST POP SWAP1 JUMP JUMPDEST POP DUP1 SLOAD PUSH2 0x6DB SWAP1 PUSH2 0xA05 JUMP JUMPDEST PUSH1 0x0 DUP3 SSTORE DUP1 PUSH1 0x1F LT PUSH2 0x6ED JUMPI POP PUSH2 0x70C JUMP JUMPDEST PUSH1 0x1F ADD PUSH1 0x20 SWAP1 DIV SWAP1 PUSH1 0x0 MSTORE PUSH1 0x20 PUSH1 0x0 KECCAK256 SWAP1 DUP2 ADD SWAP1 PUSH2 0x70B SWAP2 SWAP1 PUSH2 0x70F JUMP JUMPDEST JUMPDEST POP JUMP JUMPDEST JUMPDEST DUP1 DUP3 GT ISZERO PUSH2 0x728 JUMPI PUSH1 0x0 DUP2 PUSH1 0x0 SWAP1 SSTORE POP PUSH1 0x1 ADD PUSH2 0x710 JUMP JUMPDEST POP SWAP1 JUMP JUMPDEST PUSH1 0x0 PUSH2 0x73F PUSH2 0x73A DUP5 PUSH2 0x960 JUMP JUMPDEST PUSH2 0x93B JUMP JUMPDEST SWAP1 POP DUP3 DUP2 MSTORE PUSH1 0x20 DUP2 ADD DUP5 DUP5 DUP5 ADD GT ISZERO PUSH2 0x75B JUMPI PUSH2 0x75A PUSH2 0xACB JUMP JUMPDEST JUMPDEST PUSH2 0x766 DUP5 DUP3 DUP6 PUSH2 0x9C3 JUMP JUMPDEST POP SWAP4 SWAP3 POP POP POP JUMP JUMPDEST PUSH1 0x0 DUP2 CALLDATALOAD SWAP1 POP PUSH2 0x77D DUP2 PUSH2 0xAEB JUMP JUMPDEST SWAP3 SWAP2 POP POP JUMP JUMPDEST PUSH1 0x0 DUP3 PUSH1 0x1F DUP4 ADD SLT PUSH2 0x798 JUMPI PUSH2 0x797 PUSH2 0xAC6 JUMP JUMPDEST JUMPDEST DUP2 CALLDATALOAD PUSH2 0x7A8 DUP5 DUP3 PUSH1 0x20 DUP7 ADD PUSH2 0x72C JUMP JUMPDEST SWAP2 POP POP SWAP3 SWAP2 POP POP JUMP JUMPDEST PUSH1 0x0 DUP2 CALLDATALOAD SWAP1 POP PUSH2 0x7C0 DUP2 PUSH2 0xB02 JUMP JUMPDEST SWAP3 SWAP2 POP POP JUMP JUMPDEST PUSH1 0x0 PUSH1 0x20 DUP3 DUP5 SUB SLT ISZERO PUSH2 0x7DC JUMPI PUSH2 0x7DB PUSH2 0xAD5 JUMP JUMPDEST JUMPDEST PUSH1 0x0 PUSH2 0x7EA DUP5 DUP3 DUP6 ADD PUSH2 0x7B1 JUMP JUMPDEST SWAP2 POP POP SWAP3 SWAP2 POP POP JUMP JUMPDEST PUSH1 0x0 DUP1 PUSH1 0x0 DUP1 PUSH1 0x0 PUSH1 0xA0 DUP7 DUP9 SUB SLT ISZERO PUSH2 0x80F JUMPI PUSH2 0x80E PUSH2 0xAD5 JUMP JUMPDEST JUMPDEST PUSH1 0x0 PUSH2 0x81D DUP9 DUP3 DUP10 ADD PUSH2 0x7B1 JUMP JUMPDEST SWAP6 POP POP PUSH1 0x20 DUP7 ADD CALLDATALOAD PUSH8 0xFFFFFFFFFFFFFFFF DUP2 GT ISZERO PUSH2 0x83E JUMPI PUSH2 0x83D PUSH2 0xAD0 JUMP JUMPDEST JUMPDEST PUSH2 0x84A DUP9 DUP3 DUP10 ADD PUSH2 0x783 JUMP JUMPDEST SWAP5 POP POP PUSH1 0x40 PUSH2 0x85B DUP9 DUP3 DUP10 ADD PUSH2 0x7B1 JUMP JUMPDEST SWAP4 POP POP PUSH1 0x60 PUSH2 0x86C DUP9 DUP3 DUP10 ADD PUSH2 0x7B1 JUMP JUMPDEST SWAP3 POP POP PUSH1 0x80 PUSH2 0x87D DUP9 DUP3 DUP10 ADD PUSH2 0x76E JUMP JUMPDEST SWAP2 POP POP SWAP3 SWAP6 POP SWAP3 SWAP6 SWAP1 SWAP4 POP JUMP JUMPDEST PUSH2 0x893 DUP2 PUSH2 0x9AD JUMP JUMPDEST DUP3 MSTORE POP POP JUMP JUMPDEST PUSH1 0x0 PUSH2 0x8A4 DUP3 PUSH2 0x991 JUMP JUMPDEST PUSH2 0x8AE DUP2 DUP6 PUSH2 0x99C JUMP JUMPDEST SWAP4 POP PUSH2 0x8BE DUP2 DUP6 PUSH1 0x20 DUP7 ADD PUSH2 0x9D2 JUMP JUMPDEST PUSH2 0x8C7 DUP2 PUSH2 0xADA JUMP JUMPDEST DUP5 ADD SWAP2 POP POP SWAP3 SWAP2 POP POP JUMP JUMPDEST PUSH2 0x8DB DUP2 PUSH2 0x9B9 JUMP JUMPDEST DUP3 MSTORE POP POP JUMP JUMPDEST PUSH1 0x0 PUSH1 0xA0 DUP3 ADD SWAP1 POP PUSH2 0x8F6 PUSH1 0x0 DUP4 ADD DUP9 PUSH2 0x8D2 JUMP JUMPDEST DUP2 DUP2 SUB PUSH1 0x20 DUP4 ADD MSTORE PUSH2 0x908 DUP2 DUP8 PUSH2 0x899 JUMP JUMPDEST SWAP1 POP PUSH2 0x917 PUSH1 0x40 DUP4 ADD DUP7 PUSH2 0x8D2 JUMP JUMPDEST PUSH2 0x924 PUSH1 0x60 DUP4 ADD DUP6 PUSH2 0x8D2 JUMP JUMPDEST PUSH2 0x931 PUSH1 0x80 DUP4 ADD DUP5 PUSH2 0x88A JUMP JUMPDEST SWAP7 SWAP6 POP POP POP POP POP POP JUMP JUMPDEST PUSH1 0x0 PUSH2 0x945 PUSH2 0x956 JUMP JUMPDEST SWAP1 POP PUSH2 0x951 DUP3 DUP3 PUSH2 0xA37 JUMP JUMPDEST SWAP2 SWAP1 POP JUMP JUMPDEST PUSH1 0x0 PUSH1 0x40 MLOAD SWAP1 POP SWAP1 JUMP JUMPDEST PUSH1 0x0 PUSH8 0xFFFFFFFFFFFFFFFF DUP3 GT ISZERO PUSH2 0x97B JUMPI PUSH2 0x97A PUSH2 0xA97 JUMP JUMPDEST JUMPDEST PUSH2 0x984 DUP3 PUSH2 0xADA JUMP JUMPDEST SWAP1 POP PUSH1 0x20 DUP2 ADD SWAP1 POP SWAP2 SWAP1 POP JUMP JUMPDEST PUSH1 0x0 DUP2 MLOAD SWAP1 POP SWAP2 SWAP1 POP JUMP JUMPDEST PUSH1 0x0 DUP3 DUP3 MSTORE PUSH1 0x20 DUP3 ADD SWAP1 POP SWAP3 SWAP2 POP POP JUMP JUMPDEST PUSH1 0x0 DUP2 ISZERO ISZERO SWAP1 POP SWAP2 SWAP1 POP JUMP JUMPDEST PUSH1 0x0 DUP2 SWAP1 POP SWAP2 SWAP1 POP JUMP JUMPDEST DUP3 DUP2 DUP4 CALLDATACOPY PUSH1 0x0 DUP4 DUP4 ADD MSTORE POP POP POP JUMP JUMPDEST PUSH1 0x0 JUMPDEST DUP4 DUP2 LT ISZERO PUSH2 0x9F0 JUMPI DUP1 DUP3 ADD MLOAD DUP2 DUP5 ADD MSTORE PUSH1 0x20 DUP2 ADD SWAP1 POP PUSH2 0x9D5 JUMP JUMPDEST DUP4 DUP2 GT ISZERO PUSH2 0x9FF JUMPI PUSH1 0x0 DUP5 DUP5 ADD MSTORE JUMPDEST POP POP POP POP JUMP JUMPDEST PUSH1 0x0 PUSH1 0x2 DUP3 DIV SWAP1 POP PUSH1 0x1 DUP3 AND DUP1 PUSH2 0xA1D JUMPI PUSH1 0x7F DUP3 AND SWAP2 POP JUMPDEST PUSH1 0x20 DUP3 LT DUP2 EQ ISZERO PUSH2 0xA31 JUMPI PUSH2 0xA30 PUSH2 0xA68 JUMP JUMPDEST JUMPDEST POP SWAP2 SWAP1 POP JUMP JUMPDEST PUSH2 0xA40 DUP3 PUSH2 0xADA JUMP JUMPDEST DUP2 ADD DUP2 DUP2 LT PUSH8 0xFFFFFFFFFFFFFFFF DUP3 GT OR ISZERO PUSH2 0xA5F JUMPI PUSH2 0xA5E PUSH2 0xA97 JUMP JUMPDEST JUMPDEST DUP1 PUSH1 0x40 MSTORE POP POP POP JUMP JUMPDEST PUSH32 0x4E487B7100000000000000000000000000000000000000000000000000000000 PUSH1 0x0 MSTORE PUSH1 0x22 PUSH1 0x4 MSTORE PUSH1 0x24 PUSH1 0x0 REVERT JUMPDEST PUSH32 0x4E487B7100000000000000000000000000000000000000000000000000000000 PUSH1 0x0 MSTORE PUSH1 0x41 PUSH1 0x4 MSTORE PUSH1 0x24 PUSH1 0x0 REVERT JUMPDEST PUSH1 0x0 DUP1 REVERT JUMPDEST PUSH1 0x0 DUP1 REVERT JUMPDEST PUSH1 0x0 DUP1 REVERT JUMPDEST PUSH1 0x0 DUP1 REVERT JUMPDEST PUSH1 0x0 PUSH1 0x1F NOT PUSH1 0x1F DUP4 ADD AND SWAP1 POP SWAP2 SWAP1 POP JUMP JUMPDEST PUSH2 0xAF4 DUP2 PUSH2 0x9AD JUMP JUMPDEST DUP2 EQ PUSH2 0xAFF JUMPI PUSH1 0x0 DUP1 REVERT JUMPDEST POP JUMP JUMPDEST PUSH2 0xB0B DUP2 PUSH2 0x9B9 JUMP JUMPDEST DUP2 EQ PUSH2 0xB16 JUMPI PUSH1 0x0 DUP1 REVERT JUMPDEST POP JUMP INVALID LOG2 PUSH5 0x6970667358 0x22 SLT KECCAK256 0x29 0xC7 LOG2 0xB9 0x49 CALLCODE 0x26 0xE7 0xD9 0x1F 0xA7 0x24 GAS 0xAA LOG2 0xD1 0xF7 SAR PUSH23 0x2D6478EAF1B6F109F26D13051164736F6C634300080600 CALLER "
		},
		"gasEstimates": {
			"creation": {
				"codeDepositCost": "579000",
				"executionCost": "613",
				"totalCost": "579613"
			},
			"external": {
				"createProduct(uint256,string,uint256,uint256,bool)": "infinite",
				"deleteProduct(uint256)": "infinite",
				"getProduct(uint256)": "infinite",
				"productStructs(uint256)": "infinite",
				"updateProduct(uint256,string,uint256,uint256,bool)": "infinite"
			}
		},
		"methodIdentifiers": {
			"createProduct(uint256,string,uint256,uint256,bool)": "3fe3861e",
			"deleteProduct(uint256)": "ed90c7b7",
			"getProduct(uint256)": "b9db15b4",
			"productStructs(uint256)": "2fb1ad10",
			"updateProduct(uint256,string,uint256,uint256,bool)": "1d9990ed"
		}
	},
	"abi": [
		{
			"anonymous": false,
			"inputs": [
				{
					"indexed": false,
					"internalType": "uint256",
					"name": "id",
					"type": "uint256"
				},
				{
					"indexed": false,
					"internalType": "string",
					"name": "name",
					"type": "string"
				},
				{
					"indexed": false,
					"internalType": "uint256",
					"name": "price",
					"type": "uint256"
				},
				{
					"indexed": false,
					"internalType": "uint256",
					"name": "quantity",
					"type": "uint256"
				},
				{
					"indexed": false,
					"internalType": "bool",
					"name": "status",
					"type": "bool"
				}
			],
			"name": "ProductCreated",
			"type": "event"
		},
		{
			"anonymous": false,
			"inputs": [
				{
					"indexed": false,
					"internalType": "uint256",
					"name": "id",
					"type": "uint256"
				},
				{
					"indexed": false,
					"internalType": "string",
					"name": "name",
					"type": "string"
				},
				{
					"indexed": false,
					"internalType": "uint256",
					"name": "price",
					"type": "uint256"
				},
				{
					"indexed": false,
					"internalType": "uint256",
					"name": "quantity",
					"type": "uint256"
				},
				{
					"indexed": false,
					"internalType": "bool",
					"name": "status",
					"type": "bool"
				}
			],
			"name": "ProductDeleted",
			"type": "event"
		},
		{
			"anonymous": false,
			"inputs": [
				{
					"indexed": false,
					"internalType": "uint256",
					"name": "id",
					"type": "uint256"
				},
				{
					"indexed": false,
					"internalType": "string",
					"name": "name",
					"type": "string"
				},
				{
					"indexed": false,
					"internalType": "uint256",
					"name": "price",
					"type": "uint256"
				},
				{
					"indexed": false,
					"internalType": "uint256",
					"name": "quantity",
					"type": "uint256"
				},
				{
					"indexed": false,
					"internalType": "bool",
					"name": "status",
					"type": "bool"
				}
			],
			"name": "ProductUpdated",
			"type": "event"
		},
		{
			"inputs": [
				{
					"internalType": "uint256",
					"name": "_id",
					"type": "uint256"
				},
				{
					"internalType": "string",
					"name": "_name",
					"type": "string"
				},
				{
					"internalType": "uint256",
					"name": "_price",
					"type": "uint256"
				},
				{
					"internalType": "uint256",
					"name": "_quantity",
					"type": "uint256"
				},
				{
					"internalType": "bool",
					"name": "_status",
					"type": "bool"
				}
			],
			"name": "createProduct",
			"outputs": [],
			"stateMutability": "nonpayable",
			"type": "function"
		},
		{
			"inputs": [
				{
					"internalType": "uint256",
					"name": "_id",
					"type": "uint256"
				}
			],
			"name": "deleteProduct",
			"outputs": [],
			"stateMutability": "nonpayable",
			"type": "function"
		},
		{
			"inputs": [
				{
					"internalType": "uint256",
					"name": "_id",
					"type": "uint256"
				}
			],
			"name": "getProduct",
			"outputs": [
				{
					"internalType": "uint256",
					"name": "",
					"type": "uint256"
				},
				{
					"internalType": "string",
					"name": "",
					"type": "string"
				},
				{
					"internalType": "uint256",
					"name": "",
					"type": "uint256"
				},
				{
					"internalType": "uint256",
					"name": "",
					"type": "uint256"
				},
				{
					"internalType": "bool",
					"name": "",
					"type": "bool"
				}
			],
			"stateMutability": "view",
			"type": "function"
		},
		{
			"inputs": [
				{
					"internalType": "uint256",
					"name": "",
					"type": "uint256"
				}
			],
			"name": "productStructs",
			"outputs": [
				{
					"internalType": "uint256",
					"name": "id",
					"type": "uint256"
				},
				{
					"internalType": "string",
					"name": "name",
					"type": "string"
				},
				{
					"internalType": "uint256",
					"name": "price",
					"type": "uint256"
				},
				{
					"internalType": "uint256",
					"name": "quantity",
					"type": "uint256"
				},
				{
					"internalType": "bool",
					"name": "status",
					"type": "bool"
				}
			],
			"stateMutability": "view",
			"type": "function"
		},
		{
			"inputs": [
				{
					"internalType": "uint256",
					"name": "_id",
					"type": "uint256"
				},
				{
					"internalType": "string",
					"name": "_name",
					"type": "string"
				},
				{
					"internalType": "uint256",
					"name": "_price",
					"type": "uint256"
				},
				{
					"internalType": "uint256",
					"name": "_quantity",
					"type": "uint256"
				},
				{
					"internalType": "bool",
					"name": "_status",
					"type": "bool"
				}
			],
			"name": "updateProduct",
			"outputs": [],
			"stateMutability": "nonpayable",
			"type": "function"
		}
	]
}